{
  "_format": "hh-sol-artifact-1",
  "contractName": "ProofVerifier",
  "sourceName": "contracts/ProofVerifier.sol",
  "abi": [
    {
      "inputs": [
        {
          "internalType": "address",
          "name": "initialOwner",
          "type": "address"
        }
      ],
      "stateMutability": "nonpayable",
      "type": "constructor"
    },
    {
      "inputs": [
        {
          "internalType": "address",
          "name": "owner",
          "type": "address"
        }
      ],
      "name": "OwnableInvalidOwner",
      "type": "error"
    },
    {
      "inputs": [
        {
          "internalType": "address",
          "name": "account",
          "type": "address"
        }
      ],
      "name": "OwnableUnauthorizedAccount",
      "type": "error"
    },
    {
      "inputs": [],
      "name": "ReentrancyGuardReentrantCall",
      "type": "error"
    },
    {
      "anonymous": false,
      "inputs": [
        {
          "indexed": true,
          "internalType": "address",
          "name": "previousOwner",
          "type": "address"
        },
        {
          "indexed": true,
          "internalType": "address",
          "name": "newOwner",
          "type": "address"
        }
      ],
      "name": "OwnershipTransferred",
      "type": "event"
    },
    {
      "anonymous": false,
      "inputs": [
        {
          "indexed": true,
          "internalType": "address",
          "name": "user",
          "type": "address"
        },
        {
          "indexed": true,
          "internalType": "bytes32",
          "name": "proofHash",
          "type": "bytes32"
        },
        {
          "indexed": false,
          "internalType": "uint8",
          "name": "provider",
          "type": "uint8"
        },
        {
          "indexed": false,
          "internalType": "string",
          "name": "ipfsHash",
          "type": "string"
        }
      ],
      "name": "ProofVerified",
      "type": "event"
    },
    {
      "anonymous": false,
      "inputs": [
        {
          "indexed": false,
          "internalType": "string",
          "name": "providerId",
          "type": "string"
        },
        {
          "indexed": false,
          "internalType": "address",
          "name": "verifierAddress",
          "type": "address"
        }
      ],
      "name": "ReclaimProviderAdded",
      "type": "event"
    },
    {
      "anonymous": false,
      "inputs": [
        {
          "indexed": true,
          "internalType": "address",
          "name": "oldContract",
          "type": "address"
        },
        {
          "indexed": true,
          "internalType": "address",
          "name": "newContract",
          "type": "address"
        }
      ],
      "name": "StepCoinContractUpdated",
      "type": "event"
    },
    {
      "inputs": [],
      "name": "APPLE_HEALTH_PROVIDER",
      "outputs": [
        {
          "internalType": "string",
          "name": "",
          "type": "string"
        }
      ],
      "stateMutability": "view",
      "type": "function"
    },
    {
      "inputs": [],
      "name": "FITBIT_PROVIDER",
      "outputs": [
        {
          "internalType": "string",
          "name": "",
          "type": "string"
        }
      ],
      "stateMutability": "view",
      "type": "function"
    },
    {
      "inputs": [],
      "name": "GOOGLE_FIT_PROVIDER",
      "outputs": [
        {
          "internalType": "string",
          "name": "",
          "type": "string"
        }
      ],
      "stateMutability": "view",
      "type": "function"
    },
    {
      "inputs": [],
      "name": "STRAVA_PROVIDER",
      "outputs": [
        {
          "internalType": "string",
          "name": "",
          "type": "string"
        }
      ],
      "stateMutability": "view",
      "type": "function"
    },
    {
      "inputs": [
        {
          "internalType": "address",
          "name": "caller",
          "type": "address"
        }
      ],
      "name": "addAuthorizedCaller",
      "outputs": [],
      "stateMutability": "nonpayable",
      "type": "function"
    },
    {
      "inputs": [
        {
          "internalType": "string",
          "name": "providerId",
          "type": "string"
        },
        {
          "internalType": "address",
          "name": "verifierAddress",
          "type": "address"
        }
      ],
      "name": "addReclaimProvider",
      "outputs": [],
      "stateMutability": "nonpayable",
      "type": "function"
    },
    {
      "inputs": [
        {
          "internalType": "address",
          "name": "",
          "type": "address"
        }
      ],
      "name": "authorizedCallers",
      "outputs": [
        {
          "internalType": "bool",
          "name": "",
          "type": "bool"
        }
      ],
      "stateMutability": "view",
      "type": "function"
    },
    {
      "inputs": [
        {
          "internalType": "address[]",
          "name": "users",
          "type": "address[]"
        },
        {
          "components": [
            {
              "internalType": "uint8",
              "name": "provider",
              "type": "uint8"
            },
            {
              "internalType": "uint256",
              "name": "steps",
              "type": "uint256"
            },
            {
              "internalType": "uint256",
              "name": "calories",
              "type": "uint256"
            },
            {
              "internalType": "uint256",
              "name": "distance",
              "type": "uint256"
            },
            {
              "internalType": "uint256",
              "name": "timestamp",
              "type": "uint256"
            },
            {
              "internalType": "string",
              "name": "ipfsHash",
              "type": "string"
            }
          ],
          "internalType": "struct ProofVerifier.FitnessData[]",
          "name": "fitnessDataArray",
          "type": "tuple[]"
        },
        {
          "components": [
            {
              "internalType": "string",
              "name": "claimInfo",
              "type": "string"
            },
            {
              "internalType": "string",
              "name": "signedClaim",
              "type": "string"
            },
            {
              "internalType": "string",
              "name": "context",
              "type": "string"
            }
          ],
          "internalType": "struct ProofVerifier.ReclaimProof[]",
          "name": "proofs",
          "type": "tuple[]"
        }
      ],
      "name": "batchVerifyProofs",
      "outputs": [],
      "stateMutability": "nonpayable",
      "type": "function"
    },
    {
      "inputs": [],
      "name": "emergencyPause",
      "outputs": [],
      "stateMutability": "nonpayable",
      "type": "function"
    },
    {
      "inputs": [
        {
          "internalType": "address",
          "name": "user",
          "type": "address"
        },
        {
          "components": [
            {
              "internalType": "uint8",
              "name": "provider",
              "type": "uint8"
            },
            {
              "internalType": "uint256",
              "name": "steps",
              "type": "uint256"
            },
            {
              "internalType": "uint256",
              "name": "calories",
              "type": "uint256"
            },
            {
              "internalType": "uint256",
              "name": "distance",
              "type": "uint256"
            },
            {
              "internalType": "uint256",
              "name": "timestamp",
              "type": "uint256"
            },
            {
              "internalType": "string",
              "name": "ipfsHash",
              "type": "string"
            }
          ],
          "internalType": "struct ProofVerifier.FitnessData",
          "name": "fitnessData",
          "type": "tuple"
        },
        {
          "internalType": "string",
          "name": "signedClaim",
          "type": "string"
        }
      ],
      "name": "generateProofHash",
      "outputs": [
        {
          "internalType": "bytes32",
          "name": "",
          "type": "bytes32"
        }
      ],
      "stateMutability": "pure",
      "type": "function"
    },
    {
      "inputs": [
        {
          "internalType": "string",
          "name": "providerId",
          "type": "string"
        }
      ],
      "name": "getProviderVerifier",
      "outputs": [
        {
          "internalType": "address",
          "name": "",
          "type": "address"
        }
      ],
      "stateMutability": "view",
      "type": "function"
    },
    {
      "inputs": [
        {
          "internalType": "bytes32",
          "name": "proofHash",
          "type": "bytes32"
        }
      ],
      "name": "isProofVerified",
      "outputs": [
        {
          "internalType": "bool",
          "name": "",
          "type": "bool"
        }
      ],
      "stateMutability": "view",
      "type": "function"
    },
    {
      "inputs": [],
      "name": "owner",
      "outputs": [
        {
          "internalType": "address",
          "name": "",
          "type": "address"
        }
      ],
      "stateMutability": "view",
      "type": "function"
    },
    {
      "inputs": [
        {
          "internalType": "string",
          "name": "",
          "type": "string"
        }
      ],
      "name": "reclaimProviders",
      "outputs": [
        {
          "internalType": "address",
          "name": "",
          "type": "address"
        }
      ],
      "stateMutability": "view",
      "type": "function"
    },
    {
      "inputs": [
        {
          "internalType": "address",
          "name": "caller",
          "type": "address"
        }
      ],
      "name": "removeAuthorizedCaller",
      "outputs": [],
      "stateMutability": "nonpayable",
      "type": "function"
    },
    {
      "inputs": [
        {
          "internalType": "string",
          "name": "providerId",
          "type": "string"
        }
      ],
      "name": "removeReclaimProvider",
      "outputs": [],
      "stateMutability": "nonpayable",
      "type": "function"
    },
    {
      "inputs": [],
      "name": "renounceOwnership",
      "outputs": [],
      "stateMutability": "nonpayable",
      "type": "function"
    },
    {
      "inputs": [
        {
          "internalType": "address",
          "name": "_newContract",
          "type": "address"
        }
      ],
      "name": "setStepCoinContract",
      "outputs": [],
      "stateMutability": "nonpayable",
      "type": "function"
    },
    {
      "inputs": [],
      "name": "stepCoinContract",
      "outputs": [
        {
          "internalType": "contract IStepCoin",
          "name": "",
          "type": "address"
        }
      ],
      "stateMutability": "view",
      "type": "function"
    },
    {
      "inputs": [
        {
          "internalType": "address",
          "name": "newOwner",
          "type": "address"
        }
      ],
      "name": "transferOwnership",
      "outputs": [],
      "stateMutability": "nonpayable",
      "type": "function"
    },
    {
      "inputs": [
        {
          "internalType": "bytes32",
          "name": "",
          "type": "bytes32"
        }
      ],
      "name": "verifiedProofs",
      "outputs": [
        {
          "internalType": "bool",
          "name": "",
          "type": "bool"
        }
      ],
      "stateMutability": "view",
      "type": "function"
    },
    {
      "inputs": [
        {
          "internalType": "address",
          "name": "user",
          "type": "address"
        },
        {
          "components": [
            {
              "internalType": "uint8",
              "name": "provider",
              "type": "uint8"
            },
            {
              "internalType": "uint256",
              "name": "steps",
              "type": "uint256"
            },
            {
              "internalType": "uint256",
              "name": "calories",
              "type": "uint256"
            },
            {
              "internalType": "uint256",
              "name": "distance",
              "type": "uint256"
            },
            {
              "internalType": "uint256",
              "name": "timestamp",
              "type": "uint256"
            },
            {
              "internalType": "string",
              "name": "ipfsHash",
              "type": "string"
            }
          ],
          "internalType": "struct ProofVerifier.FitnessData",
          "name": "fitnessData",
          "type": "tuple"
        },
        {
          "components": [
            {
              "internalType": "string",
              "name": "claimInfo",
              "type": "string"
            },
            {
              "internalType": "string",
              "name": "signedClaim",
              "type": "string"
            },
            {
              "internalType": "string",
              "name": "context",
              "type": "string"
            }
          ],
          "internalType": "struct ProofVerifier.ReclaimProof",
          "name": "proof",
          "type": "tuple"
        }
      ],
      "name": "verifyProofAndReward",
      "outputs": [],
      "stateMutability": "nonpayable",
      "type": "function"
    }
  ],
  "bytecode": "0x60806040523480156200001157600080fd5b5060405162001a6338038062001a638339810160408190526200003491620002be565b806001600160a01b0381166200006457604051631e4fbdf760e01b81526000600482015260240160405180910390fd5b6200006f816200026e565b5060018080556001600160a01b038216600090815260056020908152604091829020805460ff19168417905581518083018352601681527f676f6f676c652d6669742d70726f76696465722d696400000000000000000000918101919091529051600391620000de91620002f0565b908152602001604051809103902060006101000a8154816001600160a01b0302191690836001600160a01b03160217905550600260036040518060400160405280601881526020017f6170706c652d6865616c74682d70726f76696465722d69640000000000000000815250604051620001599190620002f0565b908152602001604051809103902060006101000a8154816001600160a01b0302191690836001600160a01b0316021790555060038060405180604001604052806012815260200171199a5d189a5d0b5c1c9bdd9a59195c8b5a5960721b815250604051620001c89190620002f0565b908152602001604051809103902060006101000a8154816001600160a01b0302191690836001600160a01b0316021790555060046003604051806040016040528060128152602001711cdd1c985d984b5c1c9bdd9a59195c8b5a5960721b815250604051620002389190620002f0565b90815260405190819003602001902080546001600160a01b03929092166001600160a01b03199092169190911790555062000321565b600080546001600160a01b038381166001600160a01b0319831681178455604051919092169283917f8be0079c531659141344cd1fd0a4f28419497f9722a3daafe3b4186f6b6457e09190a35050565b600060208284031215620002d157600080fd5b81516001600160a01b0381168114620002e957600080fd5b9392505050565b6000825160005b81811015620003135760208186018101518583015201620002f7565b506000920191825250919050565b61173280620003316000396000f3fe608060405234801561001057600080fd5b50600436106101425760003560e01c8063715018a6116100b8578063b7aa02311161007c578063b7aa023114610320578063baccd12314610333578063d554e7071461036a578063da28d8401461039b578063db1b0489146103ae578063f2fde38b146103df57600080fd5b8063715018a6146102ce57806381de746c146102d65780638da5cb5b146102e95780638f4cc237146102fa57806392d48c781461030d57600080fd5b806342c8fd001161010a57806342c8fd00146102185780634c32a7fd1461023b57806351858e271461025c578063536fff6c14610264578063591e699214610287578063644023c61461029a57600080fd5b806309d8f5701461014757806313a155ea14610192578063176d80c4146101a75780632ca601ab146101da57806340c86e1a14610205575b600080fd5b61017c6040518060400160405280601681526020017519dbdbd9db194b599a5d0b5c1c9bdd9a59195c8b5a5960521b81525081565b6040516101899190610ffb565b60405180910390f35b6101a56101a036600461104a565b6103f2565b005b6101ca6101b536600461106c565b60046020526000908152604090205460ff1681565b6040519015158152602001610189565b6101ed6101e83660046110ce565b610472565b6040516001600160a01b039091168152602001610189565b6101a56102133660046110ce565b6104a7565b6101ca61022636600461106c565b60009081526004602052604090205460ff1690565b61024e610249366004611128565b6104e2565b604051908152602001610189565b6101a561053f565b6101ca61027236600461104a565b60056020526000908152604090205460ff1681565b6002546101ed906001600160a01b031681565b6101ed6102a8366004611242565b80516020818301810180516003825292820191909301209152546001600160a01b031681565b6101a5610549565b6101a56102e436600461127f565b61055b565b6000546001600160a01b03166101ed565b6101a56103083660046112fa565b6105e6565b6101a561031b36600461104a565b6106c5565b6101a561032e36600461104a565b610775565b61017c60405180604001604052806018815260200177185c1c1b194b5a19585b1d1a0b5c1c9bdd9a59195c8b5a5960421b81525081565b61017c604051806040016040528060128152602001711cdd1c985d984b5c1c9bdd9a59195c8b5a5960721b81525081565b6101a56103a9366004611393565b61079e565b61017c60405180604001604052806012815260200171199a5d189a5d0b5c1c9bdd9a59195c8b5a5960721b81525081565b6101a56103ed36600461104a565b61097b565b6103fa6109b9565b6001600160a01b03811661044e5760405162461bcd60e51b8152602060048201526016602482015275496e76616c69642063616c6c6572206164647265737360501b60448201526064015b60405180910390fd5b6001600160a01b03166000908152600560205260409020805460ff19166001179055565b60006003838360405161048692919061142d565b908152604051908190036020019020546001600160a01b0316905092915050565b6104af6109b9565b600382826040516104c192919061142d565b90815260405190819003602001902080546001600160a01b03191690555050565b6000846104f2602086018661143d565b8560200135866040013587606001358860800135888860405160200161051f989796959493929190611460565b604051602081830303815290604052805190602001209050949350505050565b6105476109b9565b565b6105516109b9565b61054760006109e6565b3360009081526005602052604090205460ff168061058357506000546001600160a01b031633145b6105c55760405162461bcd60e51b81526020600482015260136024820152722ab730baba3437b934bd32b21031b0b63632b960691b6044820152606401610445565b6105cd610a36565b6105d8838383610a60565b6105e160018055565b505050565b6105ee6109b9565b6001600160a01b0381166106445760405162461bcd60e51b815260206004820152601860248201527f496e76616c6964207665726966696572206164647265737300000000000000006044820152606401610445565b806003848460405161065792919061142d565b90815260405190819003602001812080546001600160a01b03939093166001600160a01b0319909316929092179091557f854c056346aab7e461badc358e57a5181d8db3511dd978f46a2a4b9ebab2dce9906106b8908590859085906114e1565b60405180910390a1505050565b6106cd6109b9565b6001600160a01b0381166107235760405162461bcd60e51b815260206004820152601860248201527f496e76616c696420636f6e7472616374206164647265737300000000000000006044820152606401610445565b600280546001600160a01b038381166001600160a01b0319831681179093556040519116919082907fa95073dda7d9fb0af91baf9b0132e7bd197c9d12ed080ec1a25db6e4374b848c90600090a35050565b61077d6109b9565b6001600160a01b03166000908152600560205260409020805460ff19169055565b3360009081526005602052604090205460ff16806107c657506000546001600160a01b031633145b6108085760405162461bcd60e51b81526020600482015260136024820152722ab730baba3437b934bd32b21031b0b63632b960691b6044820152606401610445565b84831461084f5760405162461bcd60e51b8152602060048201526015602482015274082e4e4c2f240d8cadccee8d040dad2e6dac2e8c6d605b1b6044820152606401610445565b8481146108965760405162461bcd60e51b8152602060048201526015602482015274082e4e4c2f240d8cadccee8d040dad2e6dac2e8c6d605b1b6044820152606401610445565b60328511156108de5760405162461bcd60e51b815260206004820152601460248201527342617463682073697a6520746f6f206c6172676560601b6044820152606401610445565b60005b85811015610972576109608787838181106108fe576108fe61150d565b9050602002016020810190610913919061104a565b8686848181106109255761092561150d565b90506020028101906109379190611523565b8585858181106109495761094961150d565b905060200281019061095b9190611543565b610a60565b8061096a81611559565b9150506108e1565b50505050505050565b6109836109b9565b6001600160a01b0381166109ad57604051631e4fbdf760e01b815260006004820152602401610445565b6109b6816109e6565b50565b6000546001600160a01b031633146105475760405163118cdaa760e01b8152336004820152602401610445565b600080546001600160a01b038381166001600160a01b0319831681178455604051919092169283917f8be0079c531659141344cd1fd0a4f28419497f9722a3daafe3b4186f6b6457e09190a35050565b600260015403610a5957604051633ee5aeb560e01b815260040160405180910390fd5b6002600155565b6001600160a01b038316610aad5760405162461bcd60e51b8152602060048201526014602482015273496e76616c69642075736572206164647265737360601b6044820152606401610445565b6000826080013511610af55760405162461bcd60e51b81526020600482015260116024820152700496e76616c69642074696d657374616d7607c1b6044820152606401610445565b6000610b0460a0840184611580565b905011610b475760405162461bcd60e51b8152602060048201526011602482015270092dcecc2d8d2c84092a08ca640d0c2e6d607b1b6044820152606401610445565b600083610b57602085018561143d565b8460200135856040013586606001358760800135878060200190610b7b9190611580565b604051602001610b92989796959493929190611460565b60408051601f1981840301815291815281516020928301206000818152600490935291205490915060ff1615610c0a5760405162461bcd60e51b815260206004820152601760248201527f50726f6f6620616c72656164792070726f6365737365640000000000000000006044820152606401610445565b610c28610c1a602085018561143d565b610c23846115c7565b610d7f565b610c6c5760405162461bcd60e51b815260206004820152601560248201527424b73b30b634b2102932b1b630b4b690383937b7b360591b6044820152606401610445565b6000818152600460209081526040909120805460ff191660011790556002546001600160a01b031690630c85eb79908690610ca99087018761143d565b602087013560408801356060890135610cc560a08b018b611580565b896040518963ffffffff1660e01b8152600401610ce9989796959493929190611672565b600060405180830381600087803b158015610d0357600080fd5b505af1158015610d17573d6000803e3d6000fd5b5083925050506001600160a01b0385167fa963016cbaee7df18598df9d0d4525b8e84b30b593b88a29352ae181cf69e3f7610d55602087018761143d565b610d6260a0880188611580565b604051610d71939291906116c4565b60405180910390a350505050565b600080610d8b84610ea7565b90506000600382604051610d9f91906116ea565b908152604051908190036020019020546001600160a01b0316905080610e075760405162461bcd60e51b815260206004820152601c60248201527f556e737570706f72746564206669746e6573732070726f7669646572000000006044820152606401610445565b835151610e495760405162461bcd60e51b815260206004820152601060248201526f456d70747920636c61696d20696e666f60801b6044820152606401610445565b600084602001515111610e935760405162461bcd60e51b8152602060048201526012602482015271456d707479207369676e656420636c61696d60701b6044820152606401610445565b505090518051602090910120151592915050565b60608160ff16600003610ee657505060408051808201909152601681527519dbdbd9db194b599a5d0b5c1c9bdd9a59195c8b5a5960521b602082015290565b8160ff16600103610f25575050604080518082019091526018815277185c1c1b194b5a19585b1d1a0b5c1c9bdd9a59195c8b5a5960421b602082015290565b8160ff16600203610f5e575050604080518082019091526012815271199a5d189a5d0b5c1c9bdd9a59195c8b5a5960721b602082015290565b8160ff16600303610f975750506040805180820190915260128152711cdd1c985d984b5c1c9bdd9a59195c8b5a5960721b602082015290565b60405162461bcd60e51b8152602060048201526015602482015274496e76616c69642070726f7669646572207479706560581b6044820152606401610445565b60005b83811015610ff2578181015183820152602001610fda565b50506000910152565b602081526000825180602084015261101a816040850160208701610fd7565b601f01601f19169190910160400192915050565b80356001600160a01b038116811461104557600080fd5b919050565b60006020828403121561105c57600080fd5b6110658261102e565b9392505050565b60006020828403121561107e57600080fd5b5035919050565b60008083601f84011261109757600080fd5b50813567ffffffffffffffff8111156110af57600080fd5b6020830191508360208285010111156110c757600080fd5b9250929050565b600080602083850312156110e157600080fd5b823567ffffffffffffffff8111156110f857600080fd5b61110485828601611085565b90969095509350505050565b600060c0828403121561112257600080fd5b50919050565b6000806000806060858703121561113e57600080fd5b6111478561102e565b9350602085013567ffffffffffffffff8082111561116457600080fd5b61117088838901611110565b9450604087013591508082111561118657600080fd5b5061119387828801611085565b95989497509550505050565b634e487b7160e01b600052604160045260246000fd5b600082601f8301126111c657600080fd5b813567ffffffffffffffff808211156111e1576111e161119f565b604051601f8301601f19908116603f011681019082821181831017156112095761120961119f565b8160405283815286602085880101111561122257600080fd5b836020870160208301376000602085830101528094505050505092915050565b60006020828403121561125457600080fd5b813567ffffffffffffffff81111561126b57600080fd5b611277848285016111b5565b949350505050565b60008060006060848603121561129457600080fd5b61129d8461102e565b9250602084013567ffffffffffffffff808211156112ba57600080fd5b6112c687838801611110565b935060408601359150808211156112dc57600080fd5b508401606081870312156112ef57600080fd5b809150509250925092565b60008060006040848603121561130f57600080fd5b833567ffffffffffffffff81111561132657600080fd5b61133286828701611085565b909450925061134590506020850161102e565b90509250925092565b60008083601f84011261136057600080fd5b50813567ffffffffffffffff81111561137857600080fd5b6020830191508360208260051b85010111156110c757600080fd5b600080600080600080606087890312156113ac57600080fd5b863567ffffffffffffffff808211156113c457600080fd5b6113d08a838b0161134e565b909850965060208901359150808211156113e957600080fd5b6113f58a838b0161134e565b9096509450604089013591508082111561140e57600080fd5b5061141b89828a0161134e565b979a9699509497509295939492505050565b8183823760009101908152919050565b60006020828403121561144f57600080fd5b813560ff8116811461106557600080fd5b6bffffffffffffffffffffffff198960601b16815260ff60f81b8860f81b1660148201528660158201528560358201528460558201528360758201528183609583013760009101609501908152979650505050505050565b81835281816020850137506000828201602090810191909152601f909101601f19169091010190565b6040815260006114f56040830185876114b8565b905060018060a01b0383166020830152949350505050565b634e487b7160e01b600052603260045260246000fd5b6000823560be1983360301811261153957600080fd5b9190910192915050565b60008235605e1983360301811261153957600080fd5b60006001820161157957634e487b7160e01b600052601160045260246000fd5b5060010190565b6000808335601e1984360301811261159757600080fd5b83018035915067ffffffffffffffff8211156115b257600080fd5b6020019150368190038213156110c757600080fd5b6000606082360312156115d957600080fd5b6040516060810167ffffffffffffffff82821081831117156115fd576115fd61119f565b81604052843591508082111561161257600080fd5b61161e368387016111b5565b8352602085013591508082111561163457600080fd5b611640368387016111b5565b6020840152604085013591508082111561165957600080fd5b50611666368286016111b5565b60408301525092915050565b60018060a01b038916815260ff8816602082015286604082015285606082015284608082015260e060a082015260006116af60e0830185876114b8565b90508260c08301529998505050505050505050565b60ff841681526040602082015260006116e16040830184866114b8565b95945050505050565b60008251611539818460208701610fd756fea26469706673582212209c804bf9ff2c9d0cf08966d9b8401f1773b391fbb1d4e660a541a8128ba0759e64736f6c63430008140033",
  "linkReferences": {},
  "deployedLinkReferences": {}
}