{
  "_format": "hh-sol-artifact-1",
  "contractName": "StepCoin",
  "sourceName": "contracts/StepCoin.sol",
  "abi": [
    {
      "inputs": [
        {
          "internalType": "address",
          "name": "initialOwner",
          "type": "address"
        },
        {
          "internalType": "address",
          "name": "_proofVerifierContract",
          "type": "address"
        }
      ],
      "stateMutability": "nonpayable",
      "type": "constructor"
    },
    {
      "inputs": [
        {
          "internalType": "address",
          "name": "spender",
          "type": "address"
        },
        {
          "internalType": "uint256",
          "name": "allowance",
          "type": "uint256"
        },
        {
          "internalType": "uint256",
          "name": "needed",
          "type": "uint256"
        }
      ],
      "name": "ERC20InsufficientAllowance",
      "type": "error"
    },
    {
      "inputs": [
        {
          "internalType": "address",
          "name": "sender",
          "type": "address"
        },
        {
          "internalType": "uint256",
          "name": "balance",
          "type": "uint256"
        },
        {
          "internalType": "uint256",
          "name": "needed",
          "type": "uint256"
        }
      ],
      "name": "ERC20InsufficientBalance",
      "type": "error"
    },
    {
      "inputs": [
        {
          "internalType": "address",
          "name": "approver",
          "type": "address"
        }
      ],
      "name": "ERC20InvalidApprover",
      "type": "error"
    },
    {
      "inputs": [
        {
          "internalType": "address",
          "name": "receiver",
          "type": "address"
        }
      ],
      "name": "ERC20InvalidReceiver",
      "type": "error"
    },
    {
      "inputs": [
        {
          "internalType": "address",
          "name": "sender",
          "type": "address"
        }
      ],
      "name": "ERC20InvalidSender",
      "type": "error"
    },
    {
      "inputs": [
        {
          "internalType": "address",
          "name": "spender",
          "type": "address"
        }
      ],
      "name": "ERC20InvalidSpender",
      "type": "error"
    },
    {
      "inputs": [],
      "name": "EnforcedPause",
      "type": "error"
    },
    {
      "inputs": [],
      "name": "ExpectedPause",
      "type": "error"
    },
    {
      "inputs": [
        {
          "internalType": "address",
          "name": "owner",
          "type": "address"
        }
      ],
      "name": "OwnableInvalidOwner",
      "type": "error"
    },
    {
      "inputs": [
        {
          "internalType": "address",
          "name": "account",
          "type": "address"
        }
      ],
      "name": "OwnableUnauthorizedAccount",
      "type": "error"
    },
    {
      "inputs": [],
      "name": "ReentrancyGuardReentrantCall",
      "type": "error"
    },
    {
      "anonymous": false,
      "inputs": [
        {
          "indexed": true,
          "internalType": "address",
          "name": "owner",
          "type": "address"
        },
        {
          "indexed": true,
          "internalType": "address",
          "name": "spender",
          "type": "address"
        },
        {
          "indexed": false,
          "internalType": "uint256",
          "name": "value",
          "type": "uint256"
        }
      ],
      "name": "Approval",
      "type": "event"
    },
    {
      "anonymous": false,
      "inputs": [
        {
          "indexed": true,
          "internalType": "address",
          "name": "user",
          "type": "address"
        },
        {
          "indexed": false,
          "internalType": "enum StepCoin.FitnessProvider",
          "name": "provider",
          "type": "uint8"
        },
        {
          "indexed": false,
          "internalType": "uint256",
          "name": "steps",
          "type": "uint256"
        },
        {
          "indexed": false,
          "internalType": "uint256",
          "name": "calories",
          "type": "uint256"
        },
        {
          "indexed": false,
          "internalType": "uint256",
          "name": "distance",
          "type": "uint256"
        },
        {
          "indexed": false,
          "internalType": "string",
          "name": "ipfsHash",
          "type": "string"
        }
      ],
      "name": "FitnessDataVerified",
      "type": "event"
    },
    {
      "anonymous": false,
      "inputs": [
        {
          "indexed": true,
          "internalType": "address",
          "name": "previousOwner",
          "type": "address"
        },
        {
          "indexed": true,
          "internalType": "address",
          "name": "newOwner",
          "type": "address"
        }
      ],
      "name": "OwnershipTransferred",
      "type": "event"
    },
    {
      "anonymous": false,
      "inputs": [
        {
          "indexed": false,
          "internalType": "address",
          "name": "account",
          "type": "address"
        }
      ],
      "name": "Paused",
      "type": "event"
    },
    {
      "anonymous": false,
      "inputs": [
        {
          "indexed": true,
          "internalType": "address",
          "name": "oldVerifier",
          "type": "address"
        },
        {
          "indexed": true,
          "internalType": "address",
          "name": "newVerifier",
          "type": "address"
        }
      ],
      "name": "ProofVerifierUpdated",
      "type": "event"
    },
    {
      "anonymous": false,
      "inputs": [
        {
          "indexed": true,
          "internalType": "address",
          "name": "user",
          "type": "address"
        },
        {
          "indexed": false,
          "internalType": "uint256",
          "name": "stepsReward",
          "type": "uint256"
        },
        {
          "indexed": false,
          "internalType": "uint256",
          "name": "caloriesReward",
          "type": "uint256"
        },
        {
          "indexed": false,
          "internalType": "uint256",
          "name": "distanceReward",
          "type": "uint256"
        },
        {
          "indexed": false,
          "internalType": "uint256",
          "name": "totalReward",
          "type": "uint256"
        }
      ],
      "name": "RewardsDistributed",
      "type": "event"
    },
    {
      "anonymous": false,
      "inputs": [
        {
          "indexed": true,
          "internalType": "address",
          "name": "from",
          "type": "address"
        },
        {
          "indexed": true,
          "internalType": "address",
          "name": "to",
          "type": "address"
        },
        {
          "indexed": false,
          "internalType": "uint256",
          "name": "value",
          "type": "uint256"
        }
      ],
      "name": "Transfer",
      "type": "event"
    },
    {
      "anonymous": false,
      "inputs": [
        {
          "indexed": false,
          "internalType": "address",
          "name": "account",
          "type": "address"
        }
      ],
      "name": "Unpaused",
      "type": "event"
    },
    {
      "inputs": [],
      "name": "CALORIES_REWARD_RATE",
      "outputs": [
        {
          "internalType": "uint256",
          "name": "",
          "type": "uint256"
        }
      ],
      "stateMutability": "view",
      "type": "function"
    },
    {
      "inputs": [],
      "name": "DATA_COIN_CATEGORY",
      "outputs": [
        {
          "internalType": "string",
          "name": "",
          "type": "string"
        }
      ],
      "stateMutability": "view",
      "type": "function"
    },
    {
      "inputs": [],
      "name": "DATA_SOURCE",
      "outputs": [
        {
          "internalType": "string",
          "name": "",
          "type": "string"
        }
      ],
      "stateMutability": "view",
      "type": "function"
    },
    {
      "inputs": [],
      "name": "DISTANCE_REWARD_RATE",
      "outputs": [
        {
          "internalType": "uint256",
          "name": "",
          "type": "uint256"
        }
      ],
      "stateMutability": "view",
      "type": "function"
    },
    {
      "inputs": [],
      "name": "MAX_DAILY_CALORIES_REWARD",
      "outputs": [
        {
          "internalType": "uint256",
          "name": "",
          "type": "uint256"
        }
      ],
      "stateMutability": "view",
      "type": "function"
    },
    {
      "inputs": [],
      "name": "MAX_DAILY_DISTANCE_REWARD",
      "outputs": [
        {
          "internalType": "uint256",
          "name": "",
          "type": "uint256"
        }
      ],
      "stateMutability": "view",
      "type": "function"
    },
    {
      "inputs": [],
      "name": "MAX_DAILY_STEPS_REWARD",
      "outputs": [
        {
          "internalType": "uint256",
          "name": "",
          "type": "uint256"
        }
      ],
      "stateMutability": "view",
      "type": "function"
    },
    {
      "inputs": [],
      "name": "STEPS_REWARD_RATE",
      "outputs": [
        {
          "internalType": "uint256",
          "name": "",
          "type": "uint256"
        }
      ],
      "stateMutability": "view",
      "type": "function"
    },
    {
      "inputs": [
        {
          "internalType": "address",
          "name": "verifier",
          "type": "address"
        }
      ],
      "name": "addAuthorizedVerifier",
      "outputs": [],
      "stateMutability": "nonpayable",
      "type": "function"
    },
    {
      "inputs": [
        {
          "internalType": "address",
          "name": "owner",
          "type": "address"
        },
        {
          "internalType": "address",
          "name": "spender",
          "type": "address"
        }
      ],
      "name": "allowance",
      "outputs": [
        {
          "internalType": "uint256",
          "name": "",
          "type": "uint256"
        }
      ],
      "stateMutability": "view",
      "type": "function"
    },
    {
      "inputs": [
        {
          "internalType": "address",
          "name": "spender",
          "type": "address"
        },
        {
          "internalType": "uint256",
          "name": "value",
          "type": "uint256"
        }
      ],
      "name": "approve",
      "outputs": [
        {
          "internalType": "bool",
          "name": "",
          "type": "bool"
        }
      ],
      "stateMutability": "nonpayable",
      "type": "function"
    },
    {
      "inputs": [
        {
          "internalType": "address",
          "name": "",
          "type": "address"
        }
      ],
      "name": "authorizedVerifiers",
      "outputs": [
        {
          "internalType": "bool",
          "name": "",
          "type": "bool"
        }
      ],
      "stateMutability": "view",
      "type": "function"
    },
    {
      "inputs": [
        {
          "internalType": "address",
          "name": "account",
          "type": "address"
        }
      ],
      "name": "balanceOf",
      "outputs": [
        {
          "internalType": "uint256",
          "name": "",
          "type": "uint256"
        }
      ],
      "stateMutability": "view",
      "type": "function"
    },
    {
      "inputs": [
        {
          "internalType": "address",
          "name": "user",
          "type": "address"
        },
        {
          "internalType": "uint256",
          "name": "steps",
          "type": "uint256"
        },
        {
          "internalType": "uint256",
          "name": "calories",
          "type": "uint256"
        },
        {
          "internalType": "uint256",
          "name": "distance",
          "type": "uint256"
        }
      ],
      "name": "calculateRewards",
      "outputs": [
        {
          "internalType": "uint256",
          "name": "stepsReward",
          "type": "uint256"
        },
        {
          "internalType": "uint256",
          "name": "caloriesReward",
          "type": "uint256"
        },
        {
          "internalType": "uint256",
          "name": "distanceReward",
          "type": "uint256"
        }
      ],
      "stateMutability": "view",
      "type": "function"
    },
    {
      "inputs": [],
      "name": "decimals",
      "outputs": [
        {
          "internalType": "uint8",
          "name": "",
          "type": "uint8"
        }
      ],
      "stateMutability": "view",
      "type": "function"
    },
    {
      "inputs": [
        {
          "internalType": "uint256",
          "name": "amount",
          "type": "uint256"
        }
      ],
      "name": "emergencyWithdraw",
      "outputs": [],
      "stateMutability": "nonpayable",
      "type": "function"
    },
    {
      "inputs": [],
      "name": "getDataCoinInfo",
      "outputs": [
        {
          "internalType": "string",
          "name": "category",
          "type": "string"
        },
        {
          "internalType": "string",
          "name": "dataSource",
          "type": "string"
        },
        {
          "internalType": "string",
          "name": "description",
          "type": "string"
        }
      ],
      "stateMutability": "pure",
      "type": "function"
    },
    {
      "inputs": [],
      "name": "getRewardMetrics",
      "outputs": [
        {
          "internalType": "uint256",
          "name": "totalUsers",
          "type": "uint256"
        },
        {
          "internalType": "uint256",
          "name": "totalRewards",
          "type": "uint256"
        },
        {
          "internalType": "uint256",
          "name": "currentSupply",
          "type": "uint256"
        }
      ],
      "stateMutability": "view",
      "type": "function"
    },
    {
      "inputs": [],
      "name": "getTotalDataPoints",
      "outputs": [
        {
          "internalType": "uint256",
          "name": "",
          "type": "uint256"
        }
      ],
      "stateMutability": "view",
      "type": "function"
    },
    {
      "inputs": [
        {
          "internalType": "address",
          "name": "user",
          "type": "address"
        }
      ],
      "name": "getUserActivity",
      "outputs": [
        {
          "internalType": "uint256",
          "name": "totalSteps",
          "type": "uint256"
        },
        {
          "internalType": "uint256",
          "name": "totalCalories",
          "type": "uint256"
        },
        {
          "internalType": "uint256",
          "name": "totalDistance",
          "type": "uint256"
        },
        {
          "internalType": "uint256",
          "name": "lastRewardDate",
          "type": "uint256"
        },
        {
          "internalType": "bool",
          "name": "isVerified",
          "type": "bool"
        },
        {
          "internalType": "uint256",
          "name": "todayStepsReward",
          "type": "uint256"
        },
        {
          "internalType": "uint256",
          "name": "todayCaloriesReward",
          "type": "uint256"
        },
        {
          "internalType": "uint256",
          "name": "todayDistanceReward",
          "type": "uint256"
        }
      ],
      "stateMutability": "view",
      "type": "function"
    },
    {
      "inputs": [],
      "name": "name",
      "outputs": [
        {
          "internalType": "string",
          "name": "",
          "type": "string"
        }
      ],
      "stateMutability": "view",
      "type": "function"
    },
    {
      "inputs": [],
      "name": "owner",
      "outputs": [
        {
          "internalType": "address",
          "name": "",
          "type": "address"
        }
      ],
      "stateMutability": "view",
      "type": "function"
    },
    {
      "inputs": [],
      "name": "pause",
      "outputs": [],
      "stateMutability": "nonpayable",
      "type": "function"
    },
    {
      "inputs": [],
      "name": "paused",
      "outputs": [
        {
          "internalType": "bool",
          "name": "",
          "type": "bool"
        }
      ],
      "stateMutability": "view",
      "type": "function"
    },
    {
      "inputs": [
        {
          "internalType": "bytes32",
          "name": "",
          "type": "bytes32"
        }
      ],
      "name": "processedProofs",
      "outputs": [
        {
          "internalType": "bool",
          "name": "",
          "type": "bool"
        }
      ],
      "stateMutability": "view",
      "type": "function"
    },
    {
      "inputs": [],
      "name": "proofVerifierContract",
      "outputs": [
        {
          "internalType": "address",
          "name": "",
          "type": "address"
        }
      ],
      "stateMutability": "view",
      "type": "function"
    },
    {
      "inputs": [
        {
          "internalType": "address",
          "name": "verifier",
          "type": "address"
        }
      ],
      "name": "removeAuthorizedVerifier",
      "outputs": [],
      "stateMutability": "nonpayable",
      "type": "function"
    },
    {
      "inputs": [],
      "name": "renounceOwnership",
      "outputs": [],
      "stateMutability": "nonpayable",
      "type": "function"
    },
    {
      "inputs": [
        {
          "internalType": "address",
          "name": "_newVerifier",
          "type": "address"
        }
      ],
      "name": "setProofVerifier",
      "outputs": [],
      "stateMutability": "nonpayable",
      "type": "function"
    },
    {
      "inputs": [],
      "name": "symbol",
      "outputs": [
        {
          "internalType": "string",
          "name": "",
          "type": "string"
        }
      ],
      "stateMutability": "view",
      "type": "function"
    },
    {
      "inputs": [],
      "name": "totalRewardsDistributed",
      "outputs": [
        {
          "internalType": "uint256",
          "name": "",
          "type": "uint256"
        }
      ],
      "stateMutability": "view",
      "type": "function"
    },
    {
      "inputs": [],
      "name": "totalSupply",
      "outputs": [
        {
          "internalType": "uint256",
          "name": "",
          "type": "uint256"
        }
      ],
      "stateMutability": "view",
      "type": "function"
    },
    {
      "inputs": [],
      "name": "totalUsersRewarded",
      "outputs": [
        {
          "internalType": "uint256",
          "name": "",
          "type": "uint256"
        }
      ],
      "stateMutability": "view",
      "type": "function"
    },
    {
      "inputs": [
        {
          "internalType": "address",
          "name": "to",
          "type": "address"
        },
        {
          "internalType": "uint256",
          "name": "value",
          "type": "uint256"
        }
      ],
      "name": "transfer",
      "outputs": [
        {
          "internalType": "bool",
          "name": "",
          "type": "bool"
        }
      ],
      "stateMutability": "nonpayable",
      "type": "function"
    },
    {
      "inputs": [
        {
          "internalType": "address",
          "name": "from",
          "type": "address"
        },
        {
          "internalType": "address",
          "name": "to",
          "type": "address"
        },
        {
          "internalType": "uint256",
          "name": "value",
          "type": "uint256"
        }
      ],
      "name": "transferFrom",
      "outputs": [
        {
          "internalType": "bool",
          "name": "",
          "type": "bool"
        }
      ],
      "stateMutability": "nonpayable",
      "type": "function"
    },
    {
      "inputs": [
        {
          "internalType": "address",
          "name": "newOwner",
          "type": "address"
        }
      ],
      "name": "transferOwnership",
      "outputs": [],
      "stateMutability": "nonpayable",
      "type": "function"
    },
    {
      "inputs": [],
      "name": "unpause",
      "outputs": [],
      "stateMutability": "nonpayable",
      "type": "function"
    },
    {
      "inputs": [
        {
          "internalType": "address",
          "name": "",
          "type": "address"
        }
      ],
      "name": "userActivities",
      "outputs": [
        {
          "internalType": "uint256",
          "name": "totalSteps",
          "type": "uint256"
        },
        {
          "internalType": "uint256",
          "name": "totalCalories",
          "type": "uint256"
        },
        {
          "internalType": "uint256",
          "name": "totalDistance",
          "type": "uint256"
        },
        {
          "internalType": "uint256",
          "name": "lastRewardDate",
          "type": "uint256"
        },
        {
          "internalType": "uint256",
          "name": "dailyStepsReward",
          "type": "uint256"
        },
        {
          "internalType": "uint256",
          "name": "dailyCaloriesReward",
          "type": "uint256"
        },
        {
          "internalType": "uint256",
          "name": "dailyDistanceReward",
          "type": "uint256"
        },
        {
          "internalType": "bool",
          "name": "isVerified",
          "type": "bool"
        }
      ],
      "stateMutability": "view",
      "type": "function"
    },
    {
      "inputs": [
        {
          "internalType": "address",
          "name": "user",
          "type": "address"
        },
        {
          "internalType": "enum StepCoin.FitnessProvider",
          "name": "provider",
          "type": "uint8"
        },
        {
          "internalType": "uint256",
          "name": "steps",
          "type": "uint256"
        },
        {
          "internalType": "uint256",
          "name": "calories",
          "type": "uint256"
        },
        {
          "internalType": "uint256",
          "name": "distance",
          "type": "uint256"
        },
        {
          "internalType": "string",
          "name": "ipfsHash",
          "type": "string"
        },
        {
          "internalType": "bytes32",
          "name": "proofHash",
          "type": "bytes32"
        }
      ],
      "name": "verifyAndReward",
      "outputs": [],
      "stateMutability": "nonpayable",
      "type": "function"
    }
  ],
  "bytecode": "0x60806040523480156200001157600080fd5b5060405162001e4438038062001e44833981016040819052620000349162000329565b816040518060400160405280600881526020016729ba32b821b7b4b760c11b815250604051806040016040528060048152602001630535445560e41b815250816003908162000084919062000406565b50600462000093828262000406565b5050506001600160a01b038116620000c657604051631e4fbdf760e01b8152600060048201526024015b60405180910390fd5b620000d18162000149565b5060016006819055600b80546001600160a01b0319166001600160a01b0384169081179091556000908152600a60205260409020805460ff1916909117905562000141826200011e601290565b6200012b90600a620005e7565b6200013b906305f5e100620005ff565b6200019b565b50506200062f565b600580546001600160a01b038381166001600160a01b0319831681179093556040519116919082907f8be0079c531659141344cd1fd0a4f28419497f9722a3daafe3b4186f6b6457e090600090a35050565b6001600160a01b038216620001c75760405163ec442f0560e01b815260006004820152602401620000bd565b620001d560008383620001d9565b5050565b6001600160a01b03831662000208578060026000828254620001fc919062000619565b909155506200027c9050565b6001600160a01b038316600090815260208190526040902054818110156200025d5760405163391434e360e21b81526001600160a01b03851660048201526024810182905260448101839052606401620000bd565b6001600160a01b03841660009081526020819052604090209082900390555b6001600160a01b0382166200029a57600280548290039055620002b9565b6001600160a01b03821660009081526020819052604090208054820190555b816001600160a01b0316836001600160a01b03167fddf252ad1be2c89b69c2b068fc378daa952ba7f163c4a11628f55a4df523b3ef83604051620002ff91815260200190565b60405180910390a3505050565b80516001600160a01b03811681146200032457600080fd5b919050565b600080604083850312156200033d57600080fd5b62000348836200030c565b915062000358602084016200030c565b90509250929050565b634e487b7160e01b600052604160045260246000fd5b600181811c908216806200038c57607f821691505b602082108103620003ad57634e487b7160e01b600052602260045260246000fd5b50919050565b601f8211156200040157600081815260208120601f850160051c81016020861015620003dc5750805b601f850160051c820191505b81811015620003fd57828155600101620003e8565b5050505b505050565b81516001600160401b0381111562000422576200042262000361565b6200043a8162000433845462000377565b84620003b3565b602080601f831160018114620004725760008415620004595750858301515b600019600386901b1c1916600185901b178555620003fd565b600085815260208120601f198616915b82811015620004a35788860151825594840194600190910190840162000482565b5085821015620004c25787850151600019600388901b60f8161c191681555b5050505050600190811b01905550565b634e487b7160e01b600052601160045260246000fd5b600181815b80851115620005295781600019048211156200050d576200050d620004d2565b808516156200051b57918102915b93841c9390800290620004ed565b509250929050565b6000826200054257506001620005e1565b816200055157506000620005e1565b81600181146200056a5760028114620005755762000595565b6001915050620005e1565b60ff841115620005895762000589620004d2565b50506001821b620005e1565b5060208310610133831016604e8410600b8410161715620005ba575081810a620005e1565b620005c68383620004e8565b8060001904821115620005dd57620005dd620004d2565b0290505b92915050565b6000620005f860ff84168362000531565b9392505050565b8082028115828204841417620005e157620005e1620004d2565b80820180821115620005e157620005e1620004d2565b611805806200063f6000396000f3fe608060405234801561001057600080fd5b506004361061023d5760003560e01c8063759953271161013b578063c132ebcc116100b8578063e0f3aa111161007c578063e0f3aa11146105c4578063ec1bc3b614610660578063ee17254614610668578063f2fde38b14610671578063f65f897a1461068457600080fd5b8063c132ebcc1461052a578063c83d9da014610541578063dd62ed3e14610567578063ddfcc294146105a0578063df6244db146105b157600080fd5b8063985cc061116100ff578063985cc061146104425780639a891716146104d3578063a65a2c3e146104f6578063a66c750114610509578063a9059cbb1461051757600080fd5b806375995327146103d3578063839139c6146103fe5780638456cb59146104215780638da5cb5b1461042957806395d89b411461043a57600080fd5b80634bde2d08116101c95780636855a48c1161018d5780636855a48c146103515780636e607fa71461036057806370a0823114610373578063715018a61461039c57806373cba98d146103a457600080fd5b80634bde2d08146102eb578063525588f8146103195780635312ea8e1461032a57806353ceaaeb1461033d5780635c975abb1461034657600080fd5b806323b872dd1161021057806323b872dd146102aa578063313ce567146102bd57806336909d5e146102cc5780633f4ba83a146102d45780634bc3cd6e146102dc57600080fd5b806306fdde0314610242578063095ea7b3146102605780630c85eb791461028357806318160ddd14610298575b600080fd5b61024a610694565b6040516102579190611421565b60405180910390f35b61027361026e366004611450565b610726565b6040519015158152602001610257565b61029661029136600461147a565b610740565b005b6002545b604051908152602001610257565b6102736102b836600461153a565b610afe565b60405160128152602001610257565b600c5461029c565b610296610b22565b61029c670de0b6b3a764000081565b6102fe6102f9366004611576565b610b34565b60408051938452602084019290925290820152606001610257565b61029c69010f0cf064dd5920000081565b6102966103383660046115af565b610c0f565b61029c600c5481565b60075460ff16610273565b61029c67016345785d8a000081565b61029661036e3660046115c8565b610c95565b61029c6103813660046115c8565b6001600160a01b031660009081526020819052604090205490565b610296610d12565b61024a6040518060400160405280601081526020016f149150d310525357d41493d513d0d3d360821b81525081565b600b546103e6906001600160a01b031681565b6040516001600160a01b039091168152602001610257565b61027361040c3660046115af565b60096020526000908152604090205460ff1681565b610296610d24565b6005546001600160a01b03166103e6565b61024a610d34565b6104966104503660046115c8565b6008602052600090815260409020805460018201546002830154600384015460048501546005860154600687015460079097015495969495939492939192909160ff1688565b604080519889526020890197909752958701949094526060860192909252608085015260a084015260c0830152151560e082015261010001610257565b6102736104e13660046115c8565b600a6020526000908152604090205460ff1681565b6102966105043660046115c8565b610d43565b61029c662386f26fc1000081565b610273610525366004611450565b610d6c565b610532610d7a565b604051610257939291906115e3565b61024a604051806040016040528060078152602001664649544e45535360c81b81525081565b61029c610575366004611626565b6001600160a01b03918216600090815260016020908152604080832093909416825291909152205490565b61029c69021e19e0c9bab240000081565b6102966105bf3660046115c8565b610dec565b6106236105d23660046115c8565b6001600160a01b031660009081526008602052604090208054600182015460028301546003840154600785015460048601546005870154600690970154959794969395929460ff9092169390929091565b6040805198895260208901979097529587019490945260608601929092521515608085015260a084015260c083015260e082015261010001610257565b6102fe610ec1565b61029c600d5481565b61029661067f3660046115c8565b610ee0565b61029c68056bc75e2d6310000081565b6060600380546106a390611659565b80601f01602080910402602001604051908101604052809291908181526020018280546106cf90611659565b801561071c5780601f106106f15761010080835404028352916020019161071c565b820191906000526020600020905b8154815290600101906020018083116106ff57829003601f168201915b5050505050905090565b600033610734818585610f1b565b60019150505b92915050565b336000908152600a602052604090205460ff16806107685750600b546001600160a01b031633145b6107b15760405162461bcd60e51b81526020600482015260156024820152742ab730baba3437b934bd32b2103b32b934b334b2b960591b60448201526064015b60405180910390fd5b6107b9610f2d565b6107c1610f57565b6001600160a01b03881661080e5760405162461bcd60e51b8152602060048201526014602482015273496e76616c69642075736572206164647265737360601b60448201526064016107a8565b60008181526009602052604090205460ff161561086d5760405162461bcd60e51b815260206004820152601760248201527f50726f6f6620616c72656164792070726f63657373656400000000000000000060448201526064016107a8565b816108ae5760405162461bcd60e51b8152602060048201526011602482015270092dcecc2d8d2c84092a08ca640d0c2e6d607b1b60448201526064016107a8565b6000818152600960209081526040808320805460ff191660011790556001600160a01b038b1683526008909152902060038101546108f09062015180906116a9565b6108fd62015180426116a9565b1115610919576000600482018190556005820181905560068201555b600080600061092a8c8b8b8b610b34565b9194509250905060008161093e84866116cb565b61094891906116cb565b90508015610a9a578a85600001600082825461096491906116cb565b925050819055508985600101600082825461097f91906116cb565b925050819055508885600201600082825461099a91906116cb565b90915550504260038601556004850180548591906000906109bc9084906116cb565b92505081905550828560050160008282546109d791906116cb565b92505081905550818560060160008282546109f291906116cb565b909155505060078501805460ff19166001179055610a108d82610f7b565b84548b9003610a2f57600c8054906000610a29836116de565b91905055505b80600d6000828254610a4191906116cb565b90915550506040805185815260208101859052908101839052606081018290526001600160a01b038e16907fdb2ae7fd4c873ab5f72ed0c2a86f8403da7fca4a50110ef5381f6c365829322d9060800160405180910390a25b8c6001600160a01b03167fc861adedf804ad370eef8f6b92bbad565727652e4deb4fc653aebd25729bbb3e8d8d8d8d8d8d604051610add969594939291906116f7565b60405180910390a25050505050610af46001600655565b5050505050505050565b600033610b0c858285610fb5565b610b17858585611034565b506001949350505050565b610b2a611093565b610b326110c0565b565b6001600160a01b03841660009081526008602052604081208190819081610b62662386f26fc1000089611763565b90506000610b7867016345785d8a000089611763565b90506000670de0b6b3a7640000610b916103e88a6116a9565b610b9b9190611763565b9050610bc083856004015469021e19e0c9bab2400000610bbb919061177a565b611112565b9650610be082856005015469010f0cf064dd59200000610bbb919061177a565b9550610bff81856006015468056bc75e2d63100000610bbb919061177a565b9450505050509450945094915050565b610c17611093565b30600090815260208190526040902054811115610c765760405162461bcd60e51b815260206004820152601d60248201527f496e73756666696369656e7420636f6e74726163742062616c616e636500000060448201526064016107a8565b610c9230610c8c6005546001600160a01b031690565b83611034565b50565b610c9d611093565b6001600160a01b038116610cee5760405162461bcd60e51b8152602060048201526018602482015277496e76616c6964207665726966696572206164647265737360401b60448201526064016107a8565b6001600160a01b03166000908152600a60205260409020805460ff19166001179055565b610d1a611093565b610b32600061112a565b610d2c611093565b610b3261117c565b6060600480546106a390611659565b610d4b611093565b6001600160a01b03166000908152600a60205260409020805460ff19169055565b600033610734818585611034565b6060806060604051806040016040528060078152602001664649544e45535360c81b8152506040518060400160405280601081526020016f149150d310525357d41493d513d0d3d360821b81525060405180608001604052806042815260200161178e60429139925092509250909192565b610df4611093565b6001600160a01b038116610e455760405162461bcd60e51b8152602060048201526018602482015277496e76616c6964207665726966696572206164647265737360401b60448201526064016107a8565b600b80546001600160a01b039081166000818152600a6020526040808220805460ff19908116909155938616808352818320805490951660011790945584546001600160a01b03191684179094559251909283917f2528461cee59a1a81abc2cd0469d9248881264358195aa0d6fbb990d5fb965d19190a35050565b6000806000600c54600d54610ed560025490565b925092509250909192565b610ee8611093565b6001600160a01b038116610f1257604051631e4fbdf760e01b8152600060048201526024016107a8565b610c928161112a565b610f2883838360016111b9565b505050565b600260065403610f5057604051633ee5aeb560e01b815260040160405180910390fd5b6002600655565b60075460ff1615610b325760405163d93c066560e01b815260040160405180910390fd5b6001600160a01b038216610fa55760405163ec442f0560e01b8152600060048201526024016107a8565b610fb16000838361128e565b5050565b6001600160a01b0383811660009081526001602090815260408083209386168352929052205460001981101561102e578181101561101f57604051637dc7a0d960e11b81526001600160a01b038416600482015260248101829052604481018390526064016107a8565b61102e848484840360006111b9565b50505050565b6001600160a01b03831661105e57604051634b637e8f60e11b8152600060048201526024016107a8565b6001600160a01b0382166110885760405163ec442f0560e01b8152600060048201526024016107a8565b610f2883838361128e565b6005546001600160a01b03163314610b325760405163118cdaa760e01b81523360048201526024016107a8565b6110c86113b8565b6007805460ff191690557f5db9ee0a495bf2e6ff9c91a7834c1ba4fdd244a5e8aa4e537bd38aeae4b073aa335b6040516001600160a01b03909116815260200160405180910390a1565b60008183106111215781611123565b825b9392505050565b600580546001600160a01b038381166001600160a01b0319831681179093556040519116919082907f8be0079c531659141344cd1fd0a4f28419497f9722a3daafe3b4186f6b6457e090600090a35050565b611184610f57565b6007805460ff191660011790557f62e78cea01bee320cd4e420270b5ea74000d11b0c9f74754ebdbfc544b05a2586110f53390565b6001600160a01b0384166111e35760405163e602df0560e01b8152600060048201526024016107a8565b6001600160a01b03831661120d57604051634a1406b160e11b8152600060048201526024016107a8565b6001600160a01b038085166000908152600160209081526040808320938716835292905220829055801561102e57826001600160a01b0316846001600160a01b03167f8c5be1e5ebec7d5bd14f71427d1e84f3dd0314c0f7b2291e5b200ac8c7c3b9258460405161128091815260200190565b60405180910390a350505050565b6001600160a01b0383166112b95780600260008282546112ae91906116cb565b9091555061132b9050565b6001600160a01b0383166000908152602081905260409020548181101561130c5760405163391434e360e21b81526001600160a01b038516600482015260248101829052604481018390526064016107a8565b6001600160a01b03841660009081526020819052604090209082900390555b6001600160a01b03821661134757600280548290039055611366565b6001600160a01b03821660009081526020819052604090208054820190555b816001600160a01b0316836001600160a01b03167fddf252ad1be2c89b69c2b068fc378daa952ba7f163c4a11628f55a4df523b3ef836040516113ab91815260200190565b60405180910390a3505050565b60075460ff16610b3257604051638dfc202b60e01b815260040160405180910390fd5b6000815180845260005b81811015611401576020818501810151868301820152016113e5565b506000602082860101526020601f19601f83011685010191505092915050565b60208152600061112360208301846113db565b80356001600160a01b038116811461144b57600080fd5b919050565b6000806040838503121561146357600080fd5b61146c83611434565b946020939093013593505050565b60008060008060008060008060e0898b03121561149657600080fd5b61149f89611434565b97506020890135600481106114b357600080fd5b965060408901359550606089013594506080890135935060a089013567ffffffffffffffff808211156114e557600080fd5b818b0191508b601f8301126114f957600080fd5b81358181111561150857600080fd5b8c602082850101111561151a57600080fd5b60208301955080945050505060c089013590509295985092959890939650565b60008060006060848603121561154f57600080fd5b61155884611434565b925061156660208501611434565b9150604084013590509250925092565b6000806000806080858703121561158c57600080fd5b61159585611434565b966020860135965060408601359560600135945092505050565b6000602082840312156115c157600080fd5b5035919050565b6000602082840312156115da57600080fd5b61112382611434565b6060815260006115f660608301866113db565b828103602084015261160881866113db565b9050828103604084015261161c81856113db565b9695505050505050565b6000806040838503121561163957600080fd5b61164283611434565b915061165060208401611434565b90509250929050565b600181811c9082168061166d57607f821691505b60208210810361168d57634e487b7160e01b600052602260045260246000fd5b50919050565b634e487b7160e01b600052601160045260246000fd5b6000826116c657634e487b7160e01b600052601260045260246000fd5b500490565b8082018082111561073a5761073a611693565b6000600182016116f0576116f0611693565b5060010190565b60006004881061171757634e487b7160e01b600052602160045260246000fd5b87825286602083015285604083015284606083015260a060808301528260a0830152828460c0840137600060c0848401015260c0601f19601f8501168301019050979650505050505050565b808202811582820484141761073a5761073a611693565b8181038181111561073a5761073a61169356fe5665726966696564206669746e65737320646174612066726f6d206d756c7469706c652070726f76696465727320766961205265636c61696d2050726f746f636f6ca2646970667358221220c3539a853f4478434107716c3f8493ff14a571dc7ef4dba064b9571da679411464736f6c63430008140033",
  "linkReferences": {},
  "deployedLinkReferences": {}
}